:020000040000fa
:080000000002040000000000f2
:020000040000fa
:100008009a0200009a0200009a0200009a02000078
:100018009a0200009a0200009a0200009a02000068
:100028009a0200009a0200009a0200009a02000058
:100038009a0200009a0200009a0200005e0700007f
:10004800200600009a0200009a0200009a020000ae
:100058009a0200009a0200009a0200009a02000028
:100068009a0200009a0200009a0200009a02000018
:100078009a0200009a0200009a0200009a02000008
:100088009a0200009a0200009a0200009a020000f8
:100098009a0200009a0200009a0200009a020000e8
:1000a8009a0200009a0200009a0200009a020000d8
:1000b8009a0200009a0200009a0200009a020000c8
:1000c8009a0200009a0200009a0200009a020000b8
:1000d8009a0200009a0200009a0200009a020000a8
:1000e8009a0200009a0200009a0200009a02000098
:1000f8009a0200009a0200009a0200009a02000088
:100108009a0200009a0200009a0200009a02000077
:100118009a0200009a0200009a0200009a02000067
:100128009a0200009a0200009a0200009a02000057
:100138009a0200009a0200009a0200009a02000047
:100148009a0200009a0200009a0200009a02000037
:100158009a0200009a0200009a0200009a02000027
:100168009a0200009a0200009a0200009a02000017
:100178009a0200009a0200009a0200009a02000007
:100188009a0200009a0200009a0200009a020000f7
:100198009a0200009a0200009a0200009a020000e7
:1001a8009a0200009a0200009a0200009a020000d7
:1001b8009a0200009a0200009a0200009a020000c7
:1001c8009a0200009a0200009a0200009a020000b7
:1001d8009a0200009a0200009a0200009a020000a7
:1001e8009a0200009a0200009a0200009a02000097
:0801f8009a0200009a020000c7
:020000040000fa
:100208009a0200009a0200009a0200009a02000076
:100218009a0200009a0200009a0200009a02000066
:100228009a0200009a0200009a0200009a02000056
:100238009a0200009a0200009a0200005e0700007d
:10024800200600009a0200009a0200009a020000ac
:100258009a0200009a0200009a0200009a02000026
:100268009a0200009a0200009a0200009a02000016
:100278009a0200009a0200009a0200009a02000006
:100288009a0200009a0200009a0200009a020000f6
:100298009a0200009a0200009a0200009a020000e6
:1002a8009a0200009a0200009a0200009a020000d6
:1002b8009a0200009a0200009a0200009a020000c6
:1002c8009a0200009a0200009a0200009a020000b6
:1002d8009a0200009a0200009a0200009a020000a6
:1002e8009a0200009a0200009a0200009a02000096
:1002f8009a0200009a0200009a0200009a02000086
:100308009a0200009a0200009a0200009a02000075
:100318009a0200009a0200009a0200009a02000065
:100328009a0200009a0200009a0200009a02000055
:100338009a0200009a0200009a0200009a02000045
:100348009a0200009a0200009a0200009a02000035
:100358009a0200009a0200009a0200009a02000025
:100368009a0200009a0200009a0200009a02000015
:100378009a0200009a0200009a0200009a02000005
:100388009a0200009a0200009a0200009a020000f5
:100398009a0200009a0200009a0200009a020000e5
:1003a8009a0200009a0200009a0200009a020000d5
:1003b8009a0200009a0200009a0200009a020000c5
:1003c8009a0200009a0200009a0200009a020000b5
:1003d8009a0200009a0200009a0200009a020000a5
:1003e8009a0200009a0200009a0200009a02000095
:0803f8009a0200009a020000c5
:020000040000fa
:10040000ef8120000edf20000e01880000000000b8
:10041000000020000000e000020032000001200087
:10042000200288000c0007008090200001002000be
:1004300011000700000020000000e0000200320070
:1004400000000200000000005e0802000000000042
:100450000040da000000fe004440a900e001200056
:100460000000e0000300320000002000a00188002e
:100470004440a80000000600910188008000780038
:100480000000eb0015003700e280400032a0b4000d
:100490009101ba00e280400032a0b4009102ba009b
:1004a000e280400032a0b4000002eb00472bde00e7
:1004b000f507b200602ce10004003a000059eb009f
:1004c0008301e900fdff3e00040037006128e100e0
:1004d000010032000082eb00040007001101ba00a5
:1004e0000200e000e8ff3a00000006003159ba00bf
:1004f0008301e9000c0032002159ba008301e900b0
:10050000080032000400e00003003a00e2804000ee
:1005100032a0b400f5ff370011d9ba008301e90019
:10052000faff3a008100e800e180400032a0b40008
:10053000000006000040da000000fe006022b80063
:10054000060220000000d0008180d2000482d20088
:100550008582d2000000a0000202520083825a006d
:10056000030031000202420083824a000000a10021
:0c0570000603e900f3ff3a00000006005b
:020000040000fa
:10057c0042720000656e00006e6100006e2000008b
:10058c00697300002061000077650000736f000044
:10059c006d65000021200000486500006c6c0000b7
:0c05ac006f20000050490000000000001b
:020000040000fa
:1005b8000000fa0090802800801188003222ef00a5
:1005c8003422ef003622ef0070062000c0118800a8
:1005d8003342a800a080200030408800a08020007e
:1005e80020408800208120001040880020812000c1
:1005f800004088000828a8000928a8000908a900c0
:100608000808a9000080fa00000006000000fa00af
:10061800e7ff07000080fa00000006000200fa0069
:100628004140800000202000008060000000e000c1
:1006380022003a0087e0a9000000eb00000f7800d4
:10064800150037001e0fe800304080001040780089
:100658000080fb00a0118800304080000000e80006
:10066800304088003140800020812000808f500079
:1006780002003a00a0802000304088000908a90044
:100688003140800020408000808f500002003a00f6
:100698000928a8000a0037001e0078000000e000c2
:1006a80007003c00911180000020200000806000bd
:1006b8000000e000e3ff3200010037000000000006
:1006c8000080fa00000006000000fa00d3ff0700cf
:1006d8000080fa00000006000200fa000000eb00ab
:1006e800000f7800150037001e0fe800004080005a
:1006f800b1118000814078000148780000408000f6
:100708000000e8000040880001408000a08120002f
:10071800808f500002003a002081200000408800ad
:100728000828a9000140800010408000808f5000f8
:1007380002003a000808a800070037001e007800e9
:100748000000e00004003c0090118000610060009f
:100758000000e000e4ff3a0087c0a9000080fa002a
:10076800000006000000fa00dbff07000080fa0026
:10077800000006000000fa0090118000620060008e
:100788000000e000010032003222a9008c40a900dc
:100798000080fa00000006000000fa00f5ff0700dc
:1007a8000080fa00000006000200fa000040eb009a
:1007b800004f780010408000104f780010408000f3
:1007c8000000e8001040880011408000a08120004f
:1007d800808f500002003a002081200010408800dd
:1007e8001140800000408000808f500001003a00d6
:1007f8000828a8000808a9001e4078000080fa0010
:10080800000006000000fa00e7ff07000080fa0079
:10081800000006000600fa00881f780010079800fc
:10082800210798000000eb00000f7800090037004e
:1008380040408000620060000000e0000a003a00ca
:100848001e0090001e044000d7ff0700004c7800ef
:100858001e0fe8002e0090009e007800808f500048
:10086800f3ff390001003700000000001e00780087
:100878004f0478000080fa00000006000400fa0027
:10088800000f7800110798009e0090001e00780065
:10089800e0ff07000080fa00000006000200fa00ee
:1008a800004f7800204080001e48780020408000db
:1008b8000000e800204088002140800020812000be
:1008c800808f500002003a00a0802000204088005d
:1008d8000928a9003140800020408000808f500006
:1008e80001003a000908a8000080fa00000006008c
:1008f8000200fa00004f78001e407800e7ff07006a
:100908000080fa00000006000600fa0010079800b0
:10091800210798000000eb00000f78000a0037005c
:100928004140800000102000008060000000e000ce
:100938000a003a001e0090001e0040001040780097
:100948001e0fe800d5ff07002e0090009e007800db
:10095800808f5000f2ff39000100370000000000ce
:100968001e0078000080fa00000006000400fa006b
:10097800000f7800110798009e0090001e00780074
:10098800e1ff07000080fa00000006000200fa00fc
:100998000000eb00000f78004140800000102000ac
:1009a800008060000000e000010032001e30a0005e
:1009b8004140800000202000008060000000e0002e
:1009c800010032001e40a00040408000610060002d
:1009d8000000e000010032001e00a000404080003e
:1009e800620060000000e000020032001e20a0004b
:1009f800010037001e10a0001e0078000080fa00d9
:100a0800000006000000fa00e0ff07000080fa007e
:100a1800000006000200fa00000f78001040800075
:100a28009e004000a0812000808f50000900360001
:100a3800104080009e004000a08120000000ea00d5
:100a48008080400020812000008040001040780015
:100a580003003700104080001e004000104078005e
:100a68000080fa00000006000200fa00000f78007b
:100a78001e007800e7ff07000080fa00000006006b
:100a88000000fa0040408000610060000000e000c3
:100a98000f003a001140800000408000808f500015
:100aa800050036001040800080007800004080007b
:100ab8000080500007003700104080008000780058
:100ac80000408000008050006800400001003700ae
:100ad8000000eb000080fa00000006000000fa00a9
:100ae800e7ff07000080fa00000006000000fa0097
:100af8004140800000102000008060000000e000fd
:100b08000f003a003140800020408000808f500064
:100b180005003600304080008000780020408000ca
:100b280000805000070037003040800080007800c7
:100b3800204080000080500068004000010037001d
:100b48000000eb000080fa00000006000000fa0038
:100b5800e6ff07000080fa00000006000000fa0027
:100b6800404080000000d100614060000080fb0030
:100b780000f0a7000000ea000000ea004f00de00d5
:100b8800004078000080fa00000006000000fa002b
:100b9800f2ff07000080fa00000006000000fa00db
:100ba800404080004800de00614060000080fb009b
:100bb80000f0a7000000ea000000ea004f00de0095
:100bc800004078000080fa00000006000000fa00eb
:100bd800f2ff07000080fa00000006000000fa009b
:100be800901180000080fa00000006000000fa0062
:100bf800faff07000080fa00000006000000fa0073
:100c080000022800900888000a21ef000004200054
:100c1800700888008500a9009500a8001c68ef00ee
:100c28000080fa00000006000000fa00f3ff070049
:100c38000080fa00000006003600f800809fbe0021
:100c4800829fbe00849fbe00869fbe000000fa00ff
:100c5800370007001dc8bf000040e8001de8b700c6
:100c680010c0b3001ce8b7008500a9000080fa0096
:100c78004f03be004f02be004f01be004f00be0032
:100c88003600f900004006000200fa00000f780064
:100c98009e007800710888001c68ef000080fa0048
:100ca800000006000200fa00000f78001e0078001d
:100cb800f5ff07000080fa00000006000000fa00b7
:100cc800700880000080fa00000006000000fa00aa
:100cd800faff07000080fa00000006000200fa0090
:100ce800000f78009e007800510888001c68ef000b
:100cf8000080fa00000006000200fa00000f7800e9
:100d08001e007800f5ff07000080fa0000000600ca
:100d18000000fa00500880000080fa000000060079
:100d28000000fa00faff07000080fa000000060041
:100d38000000fa000080fa00000006000000fa0037
:100d48001c68ef009500a80013e1a8000080fa00d5
:100d5800000006000000fa00f8ff07000080fa0013
:100d6800000006000000fa0013e1a9009500a900a0
:100d78000080fa00000006000000fa00f9ff0700f2
:100d88000080fa00000006000200fa00c18120007d
:100d980091407800014f78001e4078000004e00080
:100da800010032001c68ef001e4078000080fa0045
:100db800000006000000fa00f3ff07000080fa00b8
:100dc800000006000000fa001dc8bf000080fa00fd
:100dd800000006000000fa00faff07000080fa0091
:100de800000006000000fa001d68ef000080fa000d
:100df800000006000000fa00faff07000080fa0071
:100e0800000006000800fa00100798002107980063
:100e180032079800d3ff07001e009000ae00900034
:100e280002402f0013002000c2fd07008000780058
:100e38003e0090000088b90000007800000f78009c
:100e48001e00780090ff07000000eb00a3ff0700da
:100e5800baff07000100370000000000caff0700c2
:100e68000004a2000004e000fbff3a00bdff0700f9
:100e78000080fa00000006000000fa0000022800c6
:100e8800800888000621ef0040422f006008880093
:100e980084e0a90094e0a8001a68ef000080fa0036
:100ea800000006000000fa00f3ff07000080fa00c7
:100eb800000006003600f800809fbe00829fbe003a
:100ec800849fbe00869fbe000000fa00370007001e
:100ed8001bc8bf000040e8001be8b70010c0b30003
:100ee8001ae8b70084e0a9000080fa004f03be00aa
:100ef8004f02be004f01be004f00be003600f90091
:100f0800004006000200fa00000f78009e007800fa
:100f1800610888001a68ef000080fa0000000600e7
:100f28000200fa00000f78001e007800f5ff0700a5
:100f38000080fa00000006000000fa006008800047
:100f48000080fa00000006000000fa00faff07001f
:100f58000080fa00000006000200fa00000f780086
:100f68009e007800310888001a68ef000080fa00b7
:100f7800000006000200fa00000f78001e0078004a
:100f8800f5ff07000080fa00000006000000fa00e4
:100f9800300880000080fa00000006000000fa0017
:100fa800faff07000080fa00000006000000fa00bf
:100fb800601680004800de00614060000004a20066
:100fc800614060000080fb00610060004800dd00b7
:100fd80062168000f1ef2f008100610001007000af
:100fe800601688000080fa00000006000000fa0081
:100ff8001a68ef0094e0a80011e1a8000080fa0048
:10100800000006000000fa00f8ff07000080fa0060
:10101800000006000000fa0011e1a90094e0a90010
:101028000080fa00000006000000fa00f9ff07003f
:101038000080fa00000006000200fa00a1812000ea
:1010480091407800014f78001e4078000004e000cd
:10105800010032001a68ef001e4078000080fa0094
:10106800000006000000fa00f3ff07000080fa0005
:10107800000006000000fa001bc8bf000080fa004c
:10108800000006000000fa00faff07000080fa00de
:10109800000006000000fa001b68ef000080fa005c
:1010a800000006000000fa00faff07000080fa00be
:1010b80000000600a000fa002a000700e02b280024
:1010c800e30047001c000900b0587800d001b100c7
:1010d8000040eb00004f78000040eb0010479800fc
:1010e8000040eb0020479800cc42a90007003700d9
:1010f8001e80fb009e80fb0081004700b1409000ed
:1011080000004700016098001e4fe8001e80fb00a9
:1011180000004700304090000004e000f4ff3a006f
:101128001e80fb009e80fb0081004700b1409000bc
:101138000000470001609800cde2a900823e20002f
:1011480000202100a10720002eff0700cde2a80003
:10115800823e200000202100a107200029ff07006f
:10116800f5ff37000000fa00070007000c00070031
:101178001800070040ff07000dfd07009ffe07004d
:101188000080fa00000006000000fa0000002300ba
:10119800203a88004227a8000080fa0000000600d4
:1011a8000000fa00c422ef00f00d200000168800ad
:1011b8000010280060168800a0ef2700401688005d
:1011c8006ae0a800c0412000601988000080fa0089
:1011d800000006000000fa003005800000c0a000f2
:1011e80000d0a10000e0a100300588004005800083
:1011f8000000a0000010a1000020a1004005880008
:081208000080fa00000006005e
:020000040000fa
:101210001a080000020000000000000000080000a2
:101220001a000000000000001c080000020000007e
:081230000000000000000000b6
:020000040000fa
:0200000401f009
:040000000f000000ed
:020000040000fa
:0200000401f009
:0400080003000000f1
:020000040000fa
:0200000401f009
:04000c008000000070
:020000040000fa
:0200000401f009
:04001000bf0000002d
:020000040000fa
:0200000401f009
:04001400df00000009
:020000040000fa
:0200000401f009
:04001800fb000000e9
:020000040000fa
:0200000401f009
:04001c00c10000001f
:020000040000fa
:0200000401f009
:04002000ff000000dd
:00000001FF
